:020000040800F2
:10000000000002208D010008C5080008C70800088C
:10001000C9080008CB080008CD080008000000004F
:10002000000000000000000000000000CF080008F1
:10003000D108000800000000D3080008D508000817
:100040008901000889010008890100088901000868
:100050008901000889010008990800088901000841
:10006000890100088901000889010008A508000825
:100070008901000889010008890100088901000838
:10008000B5080008890100088901000889010008F5
:100090008901000889010008890100088901000818
:1000A0008901000889010008890100088901000808
:1000B00089010008890100088901000889010008F8
:1000C00089010008890100088901000889010008E8
:1000D00089010008890100088901000889010008D8
:1000E00089010008890100088901000889010008C8
:1000F00089010008890100088901000889010008B8
:1001000089010008890100088901000889010008A7
:100110008901000889010008055A000889010008C2
:100120008901000889010008890100088901000887
:100130008901000889010008890100088901000877
:100140008901000889010008890100088901000867
:100150008901000889010008890100088901000857
:100160008901000889010008890100088901000847
:1001700089010008890100088901000800000000C9
:10018000890100088901000800BEFEE708B500F0FB
:1001900093F800BEFEE71EF0040F0CBFEFF30880DB
:1001A000EFF309807146414A10472DE9F04182B0D2
:1001B00004468846124B5E6B9F6B9D6A1B6B13F067
:1001C000020F03D00E4BDB6A002B0CDB0D4802F054
:1001D000A3FDCDF800803B4632462946204602F07A
:1001E000A3FC00BEFEE74BF6AB6102F017FD002852
:1001F000ECD0034B4FF00042DA6202B0BDE8F08170
:1002000000ED00E0CCBB000800BEFEE71EF0040FCE
:100210000CBFEFF30880EFF309807146244A1047C2
:100220002DE9F04182B004468846084B5E6B9F6B17
:100230009D6A074802F070FDCDF800803B463246CB
:100240002946204602F070FC00BEFEE700ED00E00B
:10025000DCBB00081EF0040F0CBFEFF30880EFF3C7
:1002600009807146134A10472DE9F04182B00446D7
:100270008846084B5E6B9F6B9D6A074802F04CFDF9
:10028000CDF800803B4632462946204602F04CFC21
:1002900000BEFEE700ED00E0E8BB000800BEFEE7A0
:1002A00000BEFEE700BEFEE770470000AB0100089D
:1002B000210200086902000800B583B002F026FCA4
:1002C000384B394A1360394A1360394900E02146F6
:1002D000384B99420BD20A684B6801F10C048868CC
:1002E0009842F4D91168196004330432F8E72E4BB0
:1002F0001A68314B9A4200D0FEE72C4B1A682F4BFC
:100300009A42F9D1274B2E4A13602E4A13602E4B86
:1003100005E00020106004329342FAD80B462B4AC5
:10032000934204D2194651F8082B5B68F4E7244B3A
:100330001B6813B9234B1B6803B1FEE700F0A8F854
:10034000694601A802F02AFE214C224BE41AA410AF
:100350000025AC4214DC204C204BE41AA4100025EC
:10036000AC4213DC0099019800F0C2F805461C4C21
:100370001C4BE41AA410002C0EDC284602F0AAFD47
:10038000144B53F8253098470135E2E7134B53F8E7
:10039000253098470135E3E7013C124B53F82430F0
:1003A0009847E8E7BABADECA00000020E40200205D
:1003B000E803000800040008785634123254769896
:1003C000E8020020D85500200004000810040008AE
:1003D00010040008100400081004000810040008AD
:0803E0001004000810040008DD
:1003E8001CC1000800000020E80200201CC1000811
:1003F8000000001000000010E8020020DC5500207A
:080408000000001000000010CC
:1004100030B595B0002401941B4B1A6C42F0805209
:100420001A641B6C03F080530193019B0294174BD9
:100430001A6842F440421A601B6803F44043029376
:10044000029B012303930493022509954FF4800333
:100450000A9308230B934FF4A8730C930D9507236D
:100460000E9303A804F0E0F80F230F931095119456
:100470004FF4A05312934FF48053139305210FA808
:1004800004F0F6FA15B030BD0038024000700040AC
:1004900008B502F015FB074AD2F8883043F4700320
:1004A000C2F8883002F0A2FF05F09EFAFFF7B0FF15
:1004B00008BD00BF00ED00E00B4AD36843F0807335
:1004C000D3600A4B00225A601A6802F001021A60D7
:1004D0001A6842F001021A605A6800BF00BF00BFEC
:1004E0005868801A704700BFF0ED00E0001000E08F
:1004F00070B5ADF55B5D8EB002F078FFFFF7DCFF05
:10050000BE49BF4806F05EFA00284FD1BD4802F050
:1005100003FCFEE708AB03EB84052A46BA493046E4
:1005200006F058FAD5ED007A9FEDB87A67EE877A33
:10053000C5ED007AFDEEE77AB54B17EE902A23F869
:1005400014200134B4F5DB7FE4D900248CB33046A9
:1005500006F080F84BF68032502140F2033000F074
:100560006BFD032000F054FE012000F02BFE4FF441
:100570008052A849A84800F0B5FDA84B187800F0B3
:1005800017FE05F0A1FB00F0D9F94FF4806300934A
:10059000A34B9F4A4FF4DB7102A802F07FF9B0F140
:1005A000FF3F14D19F4802F0B7FBFEE70646002448
:1005B000C8E708AB03EB8403186805F011FD024699
:1005C0000B462146984802F0A7FB0134BEE7974B43
:1005D0001978974802F0A0FBDFE0964B00225A60A2
:1005E0005B68924B1B7843B3904B1B78012B62D016
:1005F000914B00221A70D6E0864B33F91420864BBB
:1006000023F814200134B4F5006F19D214F0010F4F
:10061000F2D0804B33F9140005F0D0FC00224FF0EB
:100620007C5305F035FD05F06DFF0DF51B53383398
:1006300003EB850318600135E4E700252C46E2E76B
:100640004FF480630DF5B75218320DF51B51383158
:1006500005A801F01DFF00210B4600E00133B3F5B2
:10066000006FC1D213F0010FF8D00DF5B752183258
:1006700002EB8102D2ED007AFEEEE87A664A17EECE
:10068000900A22F813000131E8E7624931F91300BA
:10069000614921F813000133B3F5006F0ED213F056
:1006A000010FF2D05B4931F913000DF6F86121F822
:1006B00012000132EFE700221346EDE74FF48063AA
:1006C0000DF5DF620DF6F86102A802F0FCF80022D9
:1006D000134600E00133B3F5006F89D213F0010F28
:1006E000F8D00DF5DF6131F912004B4921F8130004
:1006F0000132EFE7474B33F91420474B23F814201E
:100700000134B4F5805F16D214F0010FF2D0414BE2
:1007100033F9140005F052FC00224FF07C5305F031
:10072000B7FC05F0EFFE0DF51B53383303EB8503E3
:1007300018600135E4E74FF480630DF5B7521832C5
:100740000DF51B51383105A801F0A2FE00254FF42C
:10075000006400E00134B4F5805F15D214F0010F9D
:10076000F8D00DF5B753183303EB8503186805F07F
:1007700037FC0022314B05F08BFC05F09BFE264B2D
:1007800023F814000135E5E7284B1B78012B31D005
:10079000294B00221A7000F0D7F8274B1B78DBB2E8
:1007A000012B3FF41AAF244B1B78DBB2022BF2D1A2
:1007B000204B00225A605B681C4B1B78002BE3D156
:1007C00000254FF400649CE7124931F913001249E7
:1007D00021F813000133B3F5805F31D213F0010F1C
:1007E000F2D00C4931F913000DF6F86121F812002E
:1007F0000132EFE700224FF40063ECE76CB9000828
:1008000040B6000854B6000898B60008000000473B
:1008100088100020F4130020F4330020040000208E
:10082000F0020020B0B600089CB6000805000020C9
:10083000FCB60008001000E0EC0200200000E040E0
:100840004FF480630DF5DF620DF6F86102A802F047
:100850003AF800224FF4006300E00133B3F5805F03
:1008600096D213F0010FF8D00DF5DF6131F91200C7
:10087000024921F813000132EFE700BFF4330020F2
:10088000014B02221A707047EC020020014B01223A
:100890001A707047EC02002008B5012003F0C2FA7C
:1008A00008BD000008B5024B986B03F02FF808BD97
:1008B0005854002008B5024B586B03F027F808BDC8
:1008C000585400207047FEE7FEE7FEE7FEE770475A
:1008D0007047704708B502F09FFD02F032FE08BD78
:1008E00038B500240CE0651C29460F4802F014FAC4
:1008F00000230E4A224401210D4800F05FF92C46E6
:10090000042CF0D900240CE0651C2946094802F0AB
:1009100003FA0023084A22440121054800F04EF959
:100920002C46042CF0D938BD7CB700085C0E0020A2
:10093000A0B70008A4B70008640E002008B5012184
:10094000002005F0E1F808BD504B1B78002B00F0AB
:100950009B8000B583B04D4B1B78013B0F2B0FD80C
:10096000DFE803F008141927353E474E59646F78C5
:100970007B7E868E4FF480524549464800F0B2FB9C
:10098000424B00221A7003B05DF804FB424B18780A
:1009900000F00EFCF4E7002000F0E8FB4FF4FA5002
:1009A00000F040FC4FF4805239493A4800F09AFB7D
:1009B000E6E7002000F0DAFB4BF6803000F032FC76
:1009C0004FF480523249334800F08CFBD8E7334B68
:1009D0001B88334A12880121084600F0FDFBCFE74F
:1009E0002E4B1B882E4A12880221084600F0F4FB89
:1009F000C6E700231A461946184600F0EDFBBFE78C
:100A0000284B0193284B0093284B294A0121084683
:100A100000F0EEFBB4E7234B0193234B0093244BF0
:100A2000224A0121084600F0E3FBA9E71D4B019390
:100A30001D4B00931F4B204A0121084600F0D8FBB4
:100A40009EE700200190009003460246014600F018
:100A5000CFFB95E700F062FB92E700F073FB8FE7B6
:100A600000F05CFB154B00221A7000F06BFB87E76F
:100A700000F054FB114B01221A7000F063FB7FE77A
:100A8000002000F073FB7BE7704700BF700E002072
:100A9000F4130020F433002004000020680000203C
:100AA00066000020300000200800002060000020C8
:100AB00058000020640E00205C0E0020050000207D
:100AC000012800D0704710B582B0002005F05EF814
:100AD000012808D002F0A8FC234B1B68C01A142878
:100AE00006D802B010BD02F09FFC1F4B1860F8E75B
:100AF00000F014FB1D4802F00FF9002407E01C4B26
:100B000003EBC4035A681B4802F006F90134184B82
:100B100013F834100029F2D100230DF10702194611
:100B2000154800F04BF89DF80720144B1A701B78FD
:100B3000DBB2022B08D00A2B12D000F003FB02F02C
:100B400073FC094B1860CCE70D4C21780D4802F07E
:100B5000E3F80023224619460B4800F02FF8ECE793
:100B6000FFF7BEFEE9E700BF6C0E002030B70008BB
:100B7000B8B7000848B7000854B70008700E002046
:100B8000040000205CB7000870B7000810B505F03D
:100B9000FFFF044606F012F8204490F9013013F0EC
:100BA000040FF4D02D2CF2D0034B1B68596820465B
:100BB00008F0ACFB10BD00BF140100200FB410B54D
:100BC00084B006AB53F8040B01930FE0FFF7DEFF90
:100BD00003A91D4807F0ECFA0028F7D09DF80C3067
:100BE0002370019B1A1D0192186838B302F094F823
:100BF000019A131D0193116802F1080301935468CF
:100C0000012906D0022910D00029EAD1E0E7FFF738
:100C1000BDFF03A90C4807F0CBFA0028F7D09DF9D7
:100C20000C302370DDE7FFF7B1FF02A9074807F09A
:100C3000BFFA0028F7D0029B2360D2E704B0BDE8DA
:100C4000104004B0704700BFBCB9000898B6000857
:100C50002DE9F04788B000270197274C236B43F01C
:100C600002032363236B03F002030193019B4FF004
:100C7000010ACDF810A04FF00208CDF818800597B2
:100C80004FF4805908AD45F8149D1C4E2946304656
:100C900002F016FFCDF810804FF4005303934FF08D
:100CA0000508CDF81C802946304602F009FF4FF4B4
:100CB00000430393CDF81C802946304602F000FF24
:100CC0004FF480430393CDF81C802946304602F050
:100CD000F7FE52464946304603F088F80297236CE7
:100CE00043F480432364236C03F480430293029B08
:100CF00008B0BDE8F08700BF0038024000040240A1
:100D00002DE9F04F8DB000240194694D2B6B43F019
:100D100001032B632B6B03F001030193019B0294EE
:100D20002B6B43F004032B632B6B03F00403029340
:100D3000029B03942B6B43F004032B632B6B03F098
:100D400004030393039B04942B6B43F004032B6372
:100D50002B6B03F004030493049B022308930A9370
:100D600009941027079706260B9607A9514802F009
:100D7000A7FE4FF48069CDF81C900B96DFF844B1C4
:100D800007A9584602F09CFE4FF4805307930B9638
:100D900007A9584602F094FE4FF40068CDF81C8075
:100DA0004FF0050ACDF82CA007A9584602F088FE9E
:100DB000802307930B9607A9584602F081FE0594FD
:100DC0002B6C43F400432B642B6C03F4004305931A
:100DD000059B06942B6B43F400132B632B6B03F4DE
:100DE00000130693069BDFF8E0B0CBF80440CBF885
:100DF0000840CBF80C40CBF81090CBF814804FF49F
:100E00000050CBF818004FF48071CBF81C104FF451
:100E10000032CBF82020CBF824400323CBF8283035
:100E2000CBF82C40CBF8304005F520551035CBF8E9
:100E30000050214D4FF0806CC5F804C04FF0400CBD
:100E4000C5F808C0EC60C5F81090C5F81480A8611A
:100E5000E9612A6204226A62AB62EC622C63174B7E
:100E60002B60584602F0C4FC284602F0C1FC5846EC
:100E700002F0A0FB284602F09DFB114BC3F838B0EE
:100E8000CBF838305D63AB63224631460B2002F06D
:100E9000FDFA22465146384602F0F8FA0B2002F0DD
:100EA00039FB384602F036FB0DB0BDE8F08F00BFCD
:100EB00000380240000002400054002088600240D8
:100EC0005854002000080240F454002008B511488E
:100ED000114B0360DA6922F48062DA6100238360D7
:100EE000C360036101220262C3610C4B1B68436152
:100EF000082383614FF44073436002F0BDFF30B1BB
:100F0000044803F07DFA052002F094FA08BDFFF7CB
:100F1000F7FEF5E758540020003C00404C550020F7
:100F200008B5FFF795FE0D480D4B03600023836065
:100F30004FF4827242604FF40062C2600361436109
:100F40002822C261036283620722C2624FF40072E8
:100F50008261436204F098F808BD00BF9C540020F1
:100F60000038004008B5034804F05AF9FFF7D8FFED
:100F700008BD00BF9C54002030B583B0C0F30E43C1
:100F8000ADF80030ADF802004FF6FF73ADF8043055
:100F9000ADF806100D4C00224FF48051204602F0AF
:100FA00025FF4FF4805304226946094804F064F990
:100FB000054601224FF48051204602F017FF0DB97B
:100FC00003B030BDFFF7CEFFFAE700BF00040240D8
:100FD0009C54002070B586B0030C43F40043ADF878
:100FE0001030ADF812004FF6FF73ADF81430002248
:100FF000ADF816200E4C4FF48051204602F0F6FE5C
:101000004FF480550095042302AA04A9094804F06E
:10101000E3F9064601222946204602F0E7FE1EB902
:10102000BDF80E0006B070BDFFF79CFFF8E700BFEB
:10103000000402409C540020F0B585B006460F46DF
:101040001446FF25002301E00133DBB2072B06D84D
:101050001E4A52F82320A242F6D11D46F4E7684604
:1010600003F08EFF15F0070F22D001230093184BD9
:1010700053F825300193174B53F8253002936846F7
:1010800003F0A6FE144B1C60144B9B683420984759
:1010900045F20213984216D1104B114A13601D6895
:1010A00023463A4631463420A847002005B0F0BD1B
:1010B000012300934FF48173019303230293684645
:1010C00003F086FEDEE70120F0E700BFC0B90008AC
:1010D000E0B9000800BA00084C550020D4000020F8
:1010E000740E002038B5044615461346B2F5E04F9D
:1010F00028BF4FF4E0430A460146064802F04AFF83
:10110000054B1B68DB682A4621463420984700209F
:1011100038BD00BF58540020740E002010B5074B96
:101120001B681B693420984710B10124204610BD6C
:101130000446034803F020F8F8E700BF740E0020CF
:101140005854002010B5074B1B685B693420984742
:1011500010B10124204610BD0446034803F062F894
:10116000F8E700BF740E00205854002038B504463C
:101170000C4803F0B7F80C4B1B689B6921463420E0
:10118000984760B90546012C0AD1012002F052F9B6
:1011900000224FF40061054802F028FE00E001251E
:1011A000284638BD58540020740E0020001002401C
:1011B00008B5034B1B681B6A01463420984708BDDD
:1011C000740E002008B5034B1B685B6A014634208F
:1011D000984708BD740E002000B583B000931346F5
:1011E0000A460146342001F017F803B05DF804FB0D
:1011F00010B584B0079C0294069C0194009313469A
:101200000A460146342001F070F804B010BD000019
:1012100008B5034B1B689B6A01463420984708BDFC
:10122000740E002030B585B00446FF25002301E090
:101230000133DBB2072B06D8184A52F82320A2420A
:10124000F6D11D46F4E7684603F09AFE15F0070F45
:1012500015D1012300934FF481730193032302936B
:10126000684603F0B5FD0E4B1C60FFF72FFE0D4BDB
:101270001B68DB6921463420984705B030BD012347
:101280000093094B53F825300193084B53F8253050
:101290000293684603F09CFDE5E700BFC0B9000873
:1012A0004C550020740E0020E0B9000800BA000878
:1012B00008B50268034B9A4200D008BDFFF7E0FA78
:1012C000FBE700BF003C004008B50268034B9A42B0
:1012D00000D008BDFFF7DAFAFBE700BF003C004092
:1012E0007047000008B50268034B9A4200D008BD61
:1012F000FFF7F6FFFBE700BF003C00402DE9F0419F
:1013000086B0002700971D4B1A6B42F010021A633B
:101310001B6B03F010030093009B4FF48068CDF823
:10132000048001260296022304930397144C01A91A
:10133000204602F0C5FB4FF40065019501A9204647
:1013400002F0BEFBFFF7ECFD32464146204602F0BC
:101350004DFD3A462946204602F048FD322002F073
:1013600069F832462946204602F040FD052002F089
:1013700061F8FFF7ABFD06B0BDE8F0810038024030
:1013800000100240704708B508461146FFF7F4FD0B
:1013900008BD08B50846FFF71DFE08BD08B502F0F8
:1013A00049F808BD704710B582B0044600238DF897
:1013B000073004F0F5FB02A800F8014D01222021BE
:1013C00004F03CFC02B010BD10B582B002AC0023AA
:1013D00004F8013D04F0E4FB01220F21204604F053
:1013E0004FFC9DF8070002B010BD30B583B0054634
:1013F00002AC002304F8013D01222121204604F023
:101400003FFC9DF8070000F0D00028438DF807004E
:1014100001222121204604F011FC03B030BD00B5AB
:1014200085B004A8002300F8093D0122392104F009
:1014300027FC0622272102A804F022FC05B05DF853
:1014400004FB00B583B0012221210DF1070004F057
:1014500017FC9DF8073043F040038DF80730012258
:1014600021210DF1070004F0E9FB03B05DF804FB56
:1014700010B586B00446012220210DF1070004F0CA
:10148000FFFB0622292104A804F0FAFB002308E050
:1014900006AA02EB430212F9081C22F8101C0133C1
:1014A000DBB2022BF4D99DF8073003F0200313B907
:1014B000122100230CE04821FBE706AA02EB4302BD
:1014C00032F9102C12FB01F224F813200133DBB2A5
:1014D000022BF2D906B010BD30B583B0054602AC80
:1014E000002304F8013D01223821204604F0C8FB06
:1014F0002A786978AB780A4313438DF807300122C4
:101500003821204604F09AFB03B030BD70B582B09C
:1015100000238DF8073004F069FB40238DF8043078
:1015200010238DF8053020238DF8063001A8FFF731
:10153000D3FF3F2502AC04F8015D012222212046A1
:1015400004F07CFB50238DF807300122382120461F
:1015500004F074FBAA238DF8073001223B212046BA
:1015600004F06CFB0A238DF8073001223C21204651
:1015700004F064FB4C238DF8073001223021204613
:1015800004F05CFB03238DF8073001223D21204647
:1015900004F054FB7F268DF8076001223E2120468F
:1015A00004F04CFB8DF8076001222946204604F028
:1015B00045FB02B070BD704730B583B005460023CF
:1015C0008DF8073004F0ECFA02AC04F8015D01225A
:1015D0002021204604F032FB2D0A8DF8075001220D
:1015E0002421204604F02AFB03B030BD10B582B0A0
:1015F00002AC002304F8013D04F0D2FA01220F21CD
:10160000204604F03DFB9DF8070002B010BD00B578
:1016100083B0012225210DF1070004F031FB9DF874
:10162000073063F07F038DF80730012225210DF18B
:10163000070004F003FB03B05DF804FB10B584B0B1
:101640000446012224210DF1070004F019FB0122B8
:10165000282102A804F014FB012229210DF1090020
:1016600004F00EFB01222A210DF10A0004F008FB10
:1016700001222B210DF10B0004F002FB01222C2191
:1016800003A804F0FDFA01222D210DF10D0004F054
:10169000F7FA9DF8073003F03803083B182B0ED8F3
:1016A000DFE803F0190D0D0D0D0D0D0D100D0D0DD5
:1016B0000D0D0D0D130D0D0D0D0D0D0D16009FEDE6
:1016C000177A0AE09FED167A07E09FED167A04E09C
:1016D0009FED157A01E09FED157A002219E0510087
:1016E0004B1C04A8034413F9080C04AB194411F96A
:1016F000083C03EB002307EE903AF8EEE77A67EE3A
:10170000877AFDEEE77A17EE903A24F8123001322C
:10171000D2B2022AE3D904B010BD00BF8FC2753D1A
:10172000EC51383E8FC2753E48E13A3F8FC2F53DDD
:1017300030B583B004464278017883780A43134376
:1017400002AD05F8013D01222321284604F076FA76
:10175000E378227913438DF80730012221212846AE
:1017600004F06CFA6379A27913438DF807300122F3
:101770002221284604F062FA03B030BD30B583B0B0
:1017800000248DF8074004F031FA8DF801408DF8FF
:10179000004040238DF802308DF8034001258DF87C
:1017A00005508DF806406846FFF7C2FF02AC0323E0
:1017B00004F8013D2A465221204604F03FFAC8238E
:1017C0008DF807302A465421204604F037FA452385
:1017D0008DF807302A465621204604F02FFAFC23C4
:1017E0008DF807302A465A21204604F027FAA12313
:1017F0008DF807302A465B21204604F01FFA8DF849
:1018000007502A465C21204604F018FA2A467B211C
:10181000204604F013FA2A466021204604F00EFA0E
:1018200006238DF807302A466121204604F006FA87
:1018300028238DF807302A466221204604F0FEF95D
:1018400011238DF807302A466321204604F0F6F96B
:1018500003B030BD10F0AA3F14BF01220022030CD8
:101860001B0403B11023134310F0FF2200D0082201
:10187000134310F0F03200D004221A4310F0CC30A1
:1018800001D1104370470220FBE708B5FFF77BFD4D
:10189000002008BD38B505460520FFF77FFDEDB2F5
:1018A000012219212846FFF7F0FF04460322802178
:1018B0002846FFF7EAFF04444EF22202812128461F
:1018C000FFF7E3FF04444FF4C1424FF4826128461E
:1018D000FFF7DBFF04444AF280024FF4836128469D
:1018E000FFF7D3FF04444AF280024FF48461284694
:1018F000FFF7CBFF04444FF460424FF48561284664
:10190000FFF7C3FF04444DF61A4240F24341284614
:10191000FFF7BBFF044466224FF496612846FFF7A9
:10192000B4FF04440B224FF48B612846FFF7ADFF50
:101930000444002240F212212846FFF7A6FF044487
:10194000002240F271112846FFF79FFF04440C2249
:1019500040F25E312846FFF798FF044400224FF41E
:1019600035712846FFF791FF044400228021284664
:10197000FFF78BFF04440520FFF710FD204638BD1C
:101980002DE9F84345F2226399420BD04AF64443CD
:10199000994207D042F61133994203D0504D490184
:1019A000002303E04F4DFAE70133DBB21F4603EBA0
:1019B0004304A2004C4CA2587AB19142F4D307EBF5
:1019C00047029400484A224452689142ECD2464A67
:1019D000144494F80880677A02E010274FF0010859
:1019E0004FEA8509B9FBF1F11FFA81F9C6B200226D
:1019F00040F291113046FFF748FF044649F4004297
:101A00004FF4C9713046FFF740FF0444002240F212
:101A100093113046FFF739FF044401224FF4CA7195
:101A20003046FFF732FF04444046FFF713FF1FFA2A
:101A300080F84FEA082292B242F0080240F2951173
:101A40003046FFF722FF04444FEA881292B242F078
:101A500008024FF4CB713046FFF717FF04443846B5
:101A6000FFF7F8FE820092B240F299113046FFF77C
:101A70000CFF0444012240F291113046FFF705FFAC
:101A80000444062240F604413046FFF7FEFE0444BB
:101A900000224FF4D5713046FFF7F7FE04440922C7
:101AA0004FF4D5713046FFF7F0FE04440520FFF7F0
:101AB00075FC0B4B9D4209D048F2452240F20111C2
:101AC0003046FFF7E2FE2044BDE8F88340F24522AD
:101AD00040F201113046FFF7D8FE2044F4E700BF82
:101AE000000077010088580120BA000870B5002373
:101AF0001C460F4A52F83320BAB18A4202D0013351
:101B0000DBB2F5E7C5B20A4B03EBC40422794FF40C
:101B100081712846FFF7B9FE064662794FF4A0614D
:101B20002846FFF7B2FE304400E0002070BD00BF41
:101B30005CBA000808B5FFF7D9FF002008BD38B52A
:101B4000C5B2022240F204512846FFF79EFE044629
:101B5000042240F202512846FFF797FE0444012078
:101B6000FFF71CFC002240F21A512846FFF78DFEB9
:101B70000444002240F219512846FFF786FE04442F
:101B800041F2100240F207512846FFF77EFE04445E
:101B900041F210024FF4A1612846FFF776FE04449B
:101BA000202240F206512846FFF76FFE044420220F
:101BB00040F205512846FFF768FE0444032240F234
:101BC0001A512846FFF761FE0444032240F21951DE
:101BD0002846FFF75AFE204438BD38B5012921D0E8
:101BE000C5B24FF4207240F219412846FFF74DFE6E
:101BF00004464FF4207240F21D412846FFF745FE8F
:101C000004444FF4207240F211412846FFF73DFE94
:101C100004444FF4207240F215412846FFF735FE88
:101C2000204438BDC5B24FF4407240F219412846F5
:101C3000FFF72BFE04464FF4407240F21D41284648
:101C4000FFF723FE04444FF4407240F2114128464E
:101C5000FFF71BFE04444FF4407240F21541284642
:101C6000FFF713FE2044DCE708B50021FFF7B5FFBE
:101C700008BD08B50121FFF7B0FF08BD08B5002178
:101C8000FFF7ABFF08BD08B50121FFF7A6FF08BDB0
:101C900070B50646642933D801EB4103C1EB8313C9
:101CA0002D4A82FB0302DC17C4EB6214E4B2BF2CA2
:101CB00027D900213046FFF790FF0446F6B240F2E4
:101CC000BF2240F219413046FFF7DFFD044440F2E5
:101CD000BF2240F21D413046FFF7D7FD044440F2D9
:101CE000BF2240F211413046FFF7CFFD044440F2DD
:101CF000BF2240F215413046FFF7C7FD204425E0E2
:101D0000642421B300213046FFF767FF0546F6B291
:101D100044F40074224640F219413046FFF7B5FD05
:101D20000544224640F21D413046FFF7AEFD054412
:101D3000224640F211413046FFF7A7FD05442246F6
:101D400040F215413046FFF7A0FD284470BD012147
:101D50003046FFF742FFF9E71F85EB5170B50546A6
:101D60000139032900F29D80DFE801F0023561614D
:101D7000C6B220224FF4D2613046FFF786FD0446FA
:101D8000802240F291613046FFF77FFD044421221A
:101D90004FF4D3613046FFF778FD0444802240F2CF
:101DA00099613046FFF771FD044400224FF4D06181
:101DB0003046FFF76AFD044400224FF4D1613046FB
:101DC000FFF763FD04440F224FF48061E8B2FFF790
:101DD0005CFD204470BDC6B200224FF4D261304693
:101DE000FFF753FD044600224FF4D3613046FFF75E
:101DF0004CFD044420224FF4D0613046FFF745FDEE
:101E00000444802240F281613046FFF73EFD0444E5
:101E100021224FF4D1613046FFF737FD0444802280
:101E200040F289613046FFF730FD0444CBE7C6B28B
:101E300020224FF4D2613046FFF727FD044680226E
:101E400040F291613046FFF720FD044421224FF417
:101E5000D3613046FFF719FD0444802240F29961B6
:101E60003046FFF712FD044420224FF4D061304683
:101E7000FFF70BFD0444802240F281613046FFF7FA
:101E800004FD044421224FF4D1613046FFF7FDFCEC
:101E90000444802240F289613046FFF7F6FC044496
:101EA00091E700248FE708B500221146C0B2FFF782
:101EB000ECFC08BD08B5FFF765FA08BD10B504468F
:101EC000FFF71CFA0021E0B2FFF763FA10BD08B576
:101ED000FFF75FFAC0B208BD2DE9F8438946154601
:101EE0001C46DDF82080099F4FF4E063A8F800301D
:101EF0004FF4E1633B80C6B2B8F800103046FFF7FC
:101F0000E6FF288039883046FFF7E1FF20802B88E4
:101F1000502B0DD02388512B18D0B9F1020F05D0CA
:101F20002B88602B1FD02388612B2AD0BDE8F88333
:101F30004FF408613046FFF7CAFF2880B9F1020F5D
:101F4000E8D04FF40863A8F80030E3E740F68801D2
:101F50003046FFF7BCFF2080B9F1020FDDD040F61C
:101F600088033B80D9E74FF410613046FFF7AFFF9D
:101F70002880B9F1010FD6D04FF41063A8F80030D3
:101F8000D1E740F608113046FFF7A1FF2080B9F1F4
:101F9000010FCBD040F608133B80C7E770B584B083
:101FA00005460C4602AB01930DF10A03009303AB07
:101FB0000DF10E020021FFF78FFF022C00F082804E
:101FC000032C00F0B580012C2DD01423ADF80E3079
:101FD0001523ADF80C30EEB230224FF4407130468C
:101FE000FFF753FC044642F290224FF4487130460A
:101FF000FFF74BFC04444FF4207240F2213130468D
:10200000FFF743FC044490224FF449713046FFF738
:102010003CFC04444FF4207240F225313046FFF777
:1020200034FC04442DE01223ADF80E301323ADF838
:102030000C30EEB20C224FF440713046FFF725FC15
:1020400004464FF452524FF446713046FFF71DFCE0
:1020500004444FF4207240F21D313046FFF715FC66
:1020600004444FF4207240F219313046FFF70DFC62
:10207000044440F2A71240F219213046FFF705FC54
:102080000444EDB2BDF80E20BDF80A102846FFF753
:10209000FCFB0444BDF80C20BDF808102846FFF7EF
:1020A000F4FB0444802240F201712846FFF7EDFB67
:1020B0000444802240F209712846FFF7E6FB2044E1
:1020C00004B070BD1023ADF80E301123ADF80C3004
:1020D000EEB203224FF440713046FFF7D6FB0446C0
:1020E0004FF42A524FF444713046FFF7CEFB0444BC
:1020F00080224FF445713046FFF7C7FB04444FF48C
:10210000207240F211313046FFF7BFFB04444FF418
:10211000207240F215313046FFF7B7FB044440F21D
:10212000A7124FF406713046FFF7AFFB0444A8E74F
:102130001423ADF80E301523ADF80C30EEB230227A
:102140004FF440713046FFF7A0FB044642F2902264
:102150004FF448713046FFF798FB04444FF4207267
:1021600040F221313046FFF790FB044490224FF4B7
:1021700049713046FFF789FB04444FF4207240F266
:1021800025313046FFF781FB04447AE72DE9F0471B
:10219000054617469A465FFA81F80E0AFFF7AEF831
:1021A0005FFA85F9002211464846FFF76EFB0446A8
:1021B0002846FFF76FFB51462846FFF7E1FB044432
:1021C00051462846FFF792FC044409224FF48B61E4
:1021D0004846FFF75AFB044401224FF40071484679
:1021E000FFF753FB0444D5224FF404714846FFF730
:1021F0004CFB04442846FFF7A2FC41462846FFF763
:10220000ADFD31462846FFF7C9FE39462846FFF79F
:102210003FFD2046BDE8F0872DE9F04184B004463B
:102220000F461646984602AB01930DF10A03009340
:1022300003AB0DF10E020121FFF74EFEF7B1E5B23F
:10224000012F4ED003224FF46C612846FFF71DFB8F
:10225000424640F6C1612846FFF717FBBDF80E2045
:102260004FF410612846FFF710FB802240F6011161
:102270002846FFF70AFB6023ADF80E30FEB1E5B249
:10228000012E30D0032240F6C4612846FFF7FDFA44
:10229000BDF8282040F6C5612846FFF7F6FABDF8DC
:1022A0000C2040F608112846FFF7EFFA802240F68E
:1022B00009112846FFF7E9FA6123ADF80C30E4B2C2
:1022C000BDF80E20BDF80A102046FFF7DEFABDF873
:1022D0000C20BDF808102046FFF7D7FA04B0BDE87F
:1022E000F0810122AFE70122CDE72DE9F04F85B063
:1022F00005468A4691461C46DDF838800F9F109EA1
:1023000002AB01930DF10A03009303AB0DF10E0232
:102310000221FFF7E1FDBAF1000F50D07CB3E8B223
:1023200094F9002002F10C0394F901200C3292017F
:1023300042EAC32212B294F902300C3342EA430259
:1023400042F0010292B24FF461618346FFF79DFAB9
:1023500094F9032002F10C0394F904200C32920149
:1023600042EAC322BAF1010F08BF42F00102B2FAF9
:1023700082F2520940F611615846FFF786FA6FB1B2
:10238000002409E004F6126137F8142089B2E8B29B
:10239000FFF77BFA0134A4B2122CF3D9ECB2BDF8EA
:1023A0000E204FF408612046FFF76FFA802240F6B6
:1023B00081012046FFF769FA5023ADF80E30B9F1DC
:1023C000000F52D0B8F1000F2FD0ECB298F90020D6
:1023D00002F10C0398F901200C32920142EAC32267
:1023E00012B298F902300C3342EA430242F0010281
:1023F00092B240F626612046FFF747FA98F903208B
:1024000002F10C0398F904200C32920142EAC32233
:10241000B9F1010F08BF42F00102B2FA82F252098B
:1024200040F627612046FFF730FA6EB1002409E03C
:1024300004F6286136F8142089B2E8B2FFF725FACD
:102440000134A4B2122CF3D9ECB2BDF80C2040F642
:1024500088012046FFF719FA802240F689012046BC
:10246000FFF713FA5123ADF80C30EDB2BDF80E2092
:10247000BDF80A102846FFF708FABDF80C20BDF891
:1024800008102846FFF701FA05B0BDE8F08F0000FC
:102490002DE9F0472DED0A8B4568D0F808C0078874
:1024A000BE4607F18044013C05EB84044FEAD308A3
:1024B00075E1D4ED005A91ED007A21EE25CA64EE63
:1024C00025BA23EEA5BA63EE25AA22EEA5AA22EE2E
:1024D000255A61EEA57A65EE875A94ED016A91ED71
:1024E000011A79EE8C9A39EE2B9A78EE8B8A38EEB7
:1024F0002A8A30EE0A0A70EE850A74EEA77A36EE62
:10250000A55A24EE06CA63EE86BA23EE06BA62EE38
:1025100086AA22EE06AA61EE865A67EE066A26EEC3
:10252000016AD4ED024A91ED024A79EE8C9A39EEB5
:102530002B9A78EE8B8A38EE2A8A30EE0A0A70EEF1
:10254000A50A77EEA67A35EE066A23EEA4CA63EEF4
:1025500024BA22EEA4BA62EE24AA21EEA4AA67EE5F
:10256000245A61EE246A64EE844A94ED035AD1ED54
:10257000033A79EE8C9A39EE2B9A78EE8B8A38EE04
:102580002A8A30EE0A0A70EEA50A77EEA67A76EE6F
:10259000244A23EE05CA62EE85BA22EE05BA61EE40
:1025A00085AA27EE05AA21EE056A64EE056A25EEE6
:1025B000235AD4ED045A91ED043A79EE8C9A39EE0F
:1025C0002B9A78EE8B8A38EE2A8A30EE0A0A70EE61
:1025D000860A77EEA67A34EE855A22EEA5CA62EE16
:1025E00025BA21EEA5BA67EE25AA21EE25AA64EE4A
:1025F000256A63EEA54A65EE835A94ED056AD1ED2E
:10260000052A79EE8C9A39EE2B9A78EE8B8A38EE81
:102610002A8A30EE0A0A70EEA60A77EEA44A75EE10
:10262000255A22EE06CA61EE86BA27EE06BA61EE98
:1026300006AA24EE06AA23EE865A63EE067A26EE52
:10264000226AD4ED066A91ED062A79EE8C9A39EE6B
:102650002B9A78EE8B8A38EE2A8A30EE0A0A30EE10
:10266000855A74EEA74A75EE865A21EEA6CA67EE21
:1026700026BA21EE26BA64EE26AA23EEA6AA23EEF7
:10268000266A62EEA60A66EE826AD4ED077AD1ED7A
:10269000071A79EE8C9A39EE2B9A78EE8B8A38EEFF
:1026A0002A8A30EE0A0A35EE066A74EEA04A75EE02
:1026B000A66A27EE277A21EE27BA64EE27AA23EE30
:1026C000A7AA23EE275A62EEA70A62EE275A67EE00
:1026D000A17A013E79EE879A39EE0B9A78EEAA8AB2
:1026E00038EE0A8A30EE050A76EE200A74EEA54A24
:1026F00076EEA76A20342031002E7FF4DAAE07F0A0
:10270000070634E0D4ED007A91ED007A21EE271A25
:1027100024EE27BA63EEA7AA23EE27AA22EEA75A31
:1027200062EE275A21EEA76A67EE877A79EE819AE0
:1027300039EE0B9A78EEAA8A38EE0A8A30EE050A4C
:1027400070EEA50A74EE864A76EEA76A013EB0EEF8
:10275000441AB0EE634AF0EE433AB0EE623AF0EE5D
:10276000422AB0EE612AF0EE471A04340431002EFA
:10277000C8D12035C2ED009A82ED019AC2ED028ADD
:1027800082ED038A82ED040AC2ED050AC2ED064A13
:10279000C2ED076A08F1FF38544620324946B8F1C5
:1027A000000F37D00E6826604E6866608E68A6609F
:1027B000CE68E6600E6926614E6966618E69A66123
:1027C00001F1200904F1200AC969E16195ED001ABF
:1027D00095ED014AD5ED023A95ED033AD5ED042A7F
:1027E00095ED052A05F11C01D5ED061A4FEADE0626
:1027F0006446DFED296AF0EE664AF0EE660AB0EE56
:10280000660AB0EE668AF0EE668AB0EE669AF0EE80
:10281000669A71E703F007031DE001F1040804F173
:102820000409096821607646644629469FED1A7AB4
:10283000D1ED007AD4ED006A67EEA67A37EE277AFA
:1028400004310434013EF3D182ED007A0435013BBA
:102850004C4604324146002BDFD14368013FBA08A1
:102860000AE02968196069685960A9689960E9688F
:10287000D960013A10331035002AF2D107F003076E
:1028800004E02A681A60013F04330435002FF8D1B0
:10289000BDEC0A8BBDE8F0870000000011F0010FCD
:1028A0000ED138B51D46044601808260049A0A4460
:1028B00052000021184604F005FA6560002038BD7A
:1028C0004FF0FF3070472DE9F04F8DB00A90049221
:1028D0001C460B930246D0F804B08068059012881D
:1028E0000892099202F10043013B0BEB4303A2085B
:1028F0000292CDF80CB06CE0CA465AF808CBC4FB83
:10290000CC76019C009AC8FBCC420092DEF8028093
:10291000DEF80020C2FBCC50C8FBCC13D9F804C0B1
:10292000C2FBCC76009AC8FBCC4201940092DEF840
:102930000440DEF80680C4FBCC50C8FBCC130EF17B
:10294000080E0BF1FF3BD146BBF1000FD4D1A246DC
:102950000A4601462846019D089C14F0030F11D039
:10296000D9F80090DEF800C0DEF802E0CAFBC976B4
:10297000009CC8FBC9540094CCFBC9011C46CEFB8B
:10298000C9242346FF0B47EA464707F30F07ED0B21
:10299000009C45EA444505F30F05C7EA0547049D39
:1029A0002C4644F8087BC00B40EA414000F30F007E
:1029B000D20B42EA434202F30F02C0EA02426A60CB
:1029C000039B08330393029B013B0293079B0494F0
:1029D0000699029A02B3084650F8082B069018464A
:1029E00040F8082B07904A685A60039BD3F800A070
:1029F000D3F8028003F1040E099B4FEA930BDDF834
:102A000014900022134610461146154600921746B0
:102A100016465446019297E7DDF80CB00B9A02F087
:102A20000307DDF82490DDF810C024E001F1020E68
:102A300003F10208B1F900201A804FEA5901059C00
:102A4000584600221346251D2468061D0068C0FB59
:102A5000C42330462C460139F5D1D20B42EA434219
:102A600002F30F02ACF800200BF1020B013F4346CA
:102A70000CF1020C7146002FD8D10A9B5B68089AB2
:102A8000013A94080BE0594651F8085B184640F8A3
:102A9000085BDBF804505D60013C03468B46002C6C
:102AA000F1D102F0030206E0BBF900101980013AEF
:102AB00002330BF1020B002AF6D10DB0BDE8F08F06
:102AC0000F49D1F8883043F47003C1F888300D4BBA
:102AD0001A6842F001021A60002098601A6822F019
:102AE000847222F480321A60074A5A601A6822F40B
:102AF00080221A60D8604FF000638B60704700BF7F
:102B000000ED00E0003802401030002408B5FFF767
:102B1000D7FF044AD2F8883043F47003C2F88830F3
:102B200008BD00BF00ED00E0F8B504460D461746AD
:102B30001E46274800F0F0F82168264800F0ECF81F
:102B40006168254800F0E8F8A168244800F0E4F83E
:102B5000E168234800F0E0F82169224800F0DCF841
:102B60006169214800F0D8F8A169204800F0D4F844
:102B7000E1691F4800F0D0F81E4800F0CDF8294662
:102B80001D4800F0C9F81D4CE16A1D4800F0C4F86A
:102B9000216B1C4800F0C0F8E16B1B4800F0BCF84A
:102BA00015F0800F0AD115F4004F0CD1174800F032
:102BB000B3F80699164800F0AFF8F8BD3946154845
:102BC00000F0AAF8EFE73146134800F0A5F8EDE76A
:102BD000ACBA0008BCBA0008CCBA0008DCBA0008DD
:102BE000ECBA0008FCBA00080CBB00081CBB0008CB
:102BF0002CBB00083CBB000848BB000800ED00E00F
:102C000058BB000868BB000878BB0008A8BB0008D8
:102C1000B0BB000888BB000898BB000838B58369C2
:102C20001B888B4201D0002038BD044603684568EC
:102C3000013B302B68D8DFE803F045211C1C5D30D8
:102C4000332D1919671919191919361924671927F4
:102C50006739676767676767676767676767676732
:102C60006767676767676767671919004FF0FF3322
:102C70000360A3690233A3610120D5E70023036049
:102C8000F7E700230360F4E700232B606B60AB6081
:102C9000EB60EEE700230360EBE7AB680360E8E777
:102CA00000230360E5E700230360E2E7BFF34F8FF3
:102CB0001649CA6802F4E062154B1343CB60BFF3B8
:102CC0004F8FFEE71349286805F025FB40B96B6874
:102CD00013B901232360CCE7042B05D0082B06D0C1
:102CE0004FF0FF332360C4E702232360C1E70323CF
:102CF0002360BEE72B68023B012B02D9AB6803605F
:102D0000B7E700230360B4E700208DE700ED00E0A3
:102D10000400FA05C8BB00080FB400B583B004ABCB
:102D200053F8042B01938021064806F023FB00286A
:102D300003DD0146034800F04FF803B05DF804EBF3
:102D400004B07047780E002010B5044605F0EDFA87
:102D50000146204600F040F80121024800F03CF80E
:102D600010BD00BF44BB0008F0B585B006460C4658
:102D7000174B1B6883B9174B01930423029303235A
:102D80000393012501AF28463946ABBE0546B5F190
:102D9000FF3F14D00E4B1D600D4B1B680193029634
:102DA0000394052501AE28463146ABBE0546B5F174
:102DB000FF3F07D0AC4208D0601B05B0F0BD4FF01C
:102DC000FF30FAE74FF0FF30F7E74FF0FF30F4E75E
:102DD000F80E0020C8BB000808B5FFF7C5FF08BD06
:102DE00008B50348FFF7B0FF012000F073F800BFFB
:102DF000F8BB000808B503460C4A12685AB10B4AE2
:102E00001068033323F003030344094A934206D8AE
:102E1000064A136008BD054A06491160EFE703F052
:102E2000C1FB0C2303604FF0FF30F3E7FC0E0020E2
:102E300000FC0120DC5500200020132807DC074B94
:102E400053F83030B3F1FF3F01D00130F5E71428DB
:102E500000D070474FF0FF30FBE700BF840F002029
:102E600030B51324002520462946ABBE0446204633
:102E700030BD38B5044603F095FB0546FFF7F0FF7B
:102E80002860204638BDB0F1FF3F00D0704708B53C
:102E9000FFF7EFFF08BD000010B504460B4B1868A4
:102EA00008B1836B5BB1132C0CD8094B53F8343049
:102EB000B3F1FF3F08D0064800EBC40010BD03F09B
:102EC000D3FCF0E70020F9E70020F7E71401002029
:102ED000840F002000B530B9044D1824204629463F
:102EE000ABBE0446FEE7024DF7E700BF2600020036
:102EF000230002002DE9F04184B0234F01970326FF
:102F0000039600230293012401AD20462946ABBE5F
:102F100080461E4BC3F8008001970396042302935A
:102F200020462946ABBE8046194BC3F80080019766
:102F300003960823029320462946ABBE0446154B50
:102F40001C60B4F1FF3F01D000230AE0104B1A6867
:102F5000104B1A60F8E7104A4FF0FF3142F8331077
:102F60000133132BF7DD0C4B084A12681A6000225C
:102F70005A60074909689960DA6006490968196169
:102F80005A6104B0BDE8F081C8BB00087C0F002086
:102F9000800F0020780F0020840F00202DE9F04FD3
:102FA00083B083468A462B4B00934F23019315260B
:102FB0006C4630462146ABBE0646BEBBB146254BED
:102FC000002283F84F20009DB04637461BE003F0F7
:102FD000F5FD204490F90130002B13DB092C11D0B2
:102FE000082E21DC222C01D0272C01D10135A0464E
:102FF000194B43F826500136012703E000232B70BC
:10300000C8464F46013595F900406CB1002FDED01F
:10301000A045F3D003F0D2FD204490F90130002BFD
:10302000ECDB092CEED1E9E70EB106E00026094BF6
:1030300000221A70084A13600136074B002243F839
:103040002620CBF80060CAF80030FFF753FF03B02A
:10305000BDE8F08F000F0020500F002030B585B084
:10306000019002910392062401AD20462946ABBE91
:1030700004462046FFF707FF05B030BD70B50E4689
:103080001546FFF709FF68B104462A463146006835
:10309000FFF7E4FFB0F1FF3F03D0281A6368034451
:1030A000636070BD03F07EFA092303604FF0FF30C8
:1030B000F7E7F0B583B00C461546FFF7EDFEC0B15B
:1030C0000646022D1CD8012D21D0022D35D03368A3
:1030D000009301940A256F4628463946ABBE054643
:1030E0002846FFF7D0FE00283BDB7460204603B083
:1030F000F0BD03F057FA092303604FF0FF30F6E705
:1031000003F050FA162303604FF0FF30EFE74368F7
:10311000E418DCD503F046FA162303607368002B2D
:103120001CDD002C02DC4FF0FF30E0E703F03AFA40
:103130008B2303604FF0FF30D9E7036802AF47F8F5
:10314000083D0C2528463946ABBE05462846FFF704
:103150009AFEB0F1FF3FCAD00444B8E74FF0FF3009
:10316000C5E74FF0FF30C2E708B5FFF7A2FF08BD83
:1031700030B585B0019002910392052401AD20463F
:103180002946ABBE04462046FFF77DFE05B030BDA4
:1031900070B50E461446FFF77FFE70B10546224615
:1031A00031460068FFF7E4FF021E11DBA01A6B68CE
:1031B00003446B60944207D070BD03F0F3F9092318
:1031C00003604FF0FF30F7E70020FFF752FEF3E710
:1031D0004FF0FF30F0E730B583B002AD45F8040D95
:1031E000022420462946ABBE04462046FFF74BFE8C
:1031F00003B030BD38B50446FFF74EFE90B105462A
:10320000013C012C04D80D4B9A681B699A4210D0DE
:103210002868FFF7E0FF034610B94FF0FF322A603D
:10322000184638BD03F0BEF9092303604FF0FF33A1
:10323000F6E74FF0FF3303600023F1E7840F00202F
:1032400070B50C46FFF728FEA8B10646636843F444
:10325000005363604FF4806363640C252846314655
:10326000ABBE05462846FFF70EFEB0F1FF3F01D08A
:103270002061002070BD03F095F9092303604FF031
:10328000FF30F7E738B505460C46582200212046A6
:1032900003F018FD21462846FFF7D2FF38BD38B5A8
:1032A00005460C4658220021204603F00BFD002164
:1032B000284600F06BF80546B0F1FF3F0CD063687C
:1032C00043F4014363602146FFF7BAFF04462846F2
:1032D000FFF790FF204638BD0446FBE7F0B59BB0F2
:1032E00007460C46FFF7A8FD0646B0F1FF3F32D077
:1032F00004F42063B3F5206F32D014F4803500D08D
:10330000012514F0020F01D045F0020540F20163DF
:103310001C4201D045F0040514F0080F03D025F03D
:10332000040545F008051797384604F0FEFF19908C
:103330001895012417AD20462946ABBE0446002C43
:103340001CDB114B43F8364003EBC60300225A60E6
:1033500030461BB0F0BD03F025F918230360F7E7F2
:1033600069463846FFF79BFFB0F1FF3FC5D003F039
:1033700019F9112303604FF0FF36E9E72046FFF704
:1033800078FD0646E4E700BF840F00200EB400B5C8
:103390000199FFF7A3FF5DF804EB03B0704738B560
:1033A000FFF77AFD80B10546092420462946ABBEC9
:1033B00004462046012C06D003F0F4F80446FFF73B
:1033C0004FFD2060002038BD03F0ECF809230360B6
:1033D0000020F8E708B50A4601460248FFF79CFCC2
:1033E000FFF7FEFC0CBC00087047000008B5094B55
:1033F0001A6842F400721A601A6842F480621A6015
:10340000032000F025F80F2002F0AAFAFFF7ECFFE6
:10341000002008BD003C0240024A136801331360DB
:10342000704700BF98550020014B1868704700BFD7
:103430009855002010B582B00190FFF7F5FF0446C3
:10344000FFF7F2FF001B019B9842F9D302B010BDB9
:1034500010B50446C31E042B0FD80A4AD36823F4C0
:10346000E0631B041B0C240204F4E064234343F0D8
:10347000BF6343F40033D36010BDA4210248FFF7BB
:10348000A9FFEAE700ED00E038BC000870B505468A
:103490000C4616460F2A24D80F2C27D81A4BDB6867
:1034A000C3F30223C3F10702042A28BF0422191D13
:1034B000062920D9033B012101FA02F2013A144006
:1034C0009C4001FA03F3013B33401C43002D14DB05
:1034D0002401E4B205F1604505F5614585F8004336
:1034E00070BDBC210948FFF775FFD5E7BD2107482E
:1034F000FFF770FFD2E70023DDE705F00F05240199
:10350000E4B2034B5C55EBE700ED00E038BC00088B
:1035100014ED00E010B5041E08DB04F01F020123C7
:1035200093406409044A42F8243010BDD021034876
:10353000FFF750FFF1E700BF00E100E038BC0008F2
:10354000704708B5FFF7FCFF08BD30B405682C686C
:1035500024F480242C60046863608368402B05D0C9
:10356000036899600368DA6030BC704703689A604A
:103570000368D960F8E700000268D3B2103B0B493A
:10358000A1FB03131B090A49C95C4165032B06D83B
:1035900022F47F7222F003020265006D704722F46C
:1035A0007F7222F0030204320265F6E7ABAAAAAAF0
:1035B0009CBC0008002800F0138110B50446036885
:1035C000884A934231D0183293422ED01832934217
:1035D0002BD01832934228D01832934225D018327B
:1035E000934222D0183293421FD0183293421CD0FB
:1035F00002F55672934218D01832934215D0183201
:10360000934212D0183293420FD0183293420CD00A
:103610001832934209D01832934206D0183293429E
:1036200003D0C5217048FFF7D5FE6368A3B1B3F19D
:10363000007F11D0B3F1806F0ED0B3F1C06F0BD00B
:10364000B3F1006F08D0B3F1206F05D0B3F1406F34
:1036500002D0B3F1606F7FD1A3681BB1402B01D0C2
:10366000802B7ED1E368B3F5007F01D0002B7DD1A4
:103670002369B3F5806F01D0002B7CD163692BB136
:10368000B3F5006F02D0B3F5805F79D1A3692BB198
:10369000B3F5005F02D0B3F5804F76D1E36923B173
:1036A000B3F5807F01D0202B74D1236A43B1B3F5E9
:1036B000803F05D0B3F5003F02D0B3F5403F6ED157
:1036C000636A0BB1042B6FD1636AC3B1A36A032B86
:1036D0006FD8E36A43B1B3F5000F05D0B3F1807F33
:1036E00002D0B3F1C07F69D1236B43B1B3F5001FA2
:1036F00005D0B3F5800F02D0B3F5C00F63D102231C
:1037000084F8353020680368384919406268A36836
:103710001343E26813432269134362691343A269A6
:103720001343E2691343226A13430B43626A042A78
:103730004ED003602268536923F00703616A0B438C
:1037400004294AD053612046FFF716FF0020E064A9
:10375000012384F8353010BDC6212348FFF73AFE17
:103760007AE7C7212048FFF735FE7BE7C8211E48CE
:10377000FFF730FE7CE7C9211B48FFF72BFE7DE7F2
:10378000CA211948FFF726FE80E7CB211648FFF72C
:1037900021FE83E7CC211448FFF71CFE85E7CD21ED
:1037A0001148FFF717FE8BE7CE210F48FFF712FEF7
:1037B0008AE7D3210C48FFF70DFE8AE7D4210A4897
:1037C000FFF708FE90E7D5210748FFF703FE96E7CD
:1037D000E26A216B0A431343ABE7A16A0B43B1E7EB
:1037E00001207047106002406CBC00083F8010F060
:1037F00030B338B5044690F83530DBB2022B21D017
:103800000268136823F001031360036800251D603C
:1038100003685D6003689D600368DD6003681D6187
:10382000036821225A61FFF7A7FE626D3F23934090
:103830008360E56484F8355084F83450284638BDF8
:10384000012070470120FAE7F8B590F83440012CC8
:1038500030D01D4616460F460446012380F834300A
:10386000022380F835306A1E4FF6FE739A421BD849
:103870002068036823F0010303602B463246394673
:103880002046FFF762FE2268136843F01E031360B0
:103890002268536943F0800353612268136843F040
:1038A000010313600020F8BD40F299110248FFF7B0
:1038B00091FDDDE70220F6E76CBC000838B5044650
:1038C0000268136823F001031360FFF7ADFD05469E
:1038D00023681B6813F0010F10D0FFF7A5FD401BF4
:1038E000B0F57A7FF4D9E36C43F02003E36400235E
:1038F00084F83430032084F8350005E0002084F893
:103900003400012384F8353038BD000038B5044652
:10391000056D2A68416D08238B401A4219D003684F
:103920001A6812F0040F14D01A6822F004021A6008
:10393000426D08239340AB60C36C43F00103C36442
:10394000042380F83530002380F83430836C03B1D1
:1039500098472A68616D584B8B401A421AD02368E9
:103960005A6912F0800F15D05A6922F080025A610C
:10397000626D514B9340AB60E36C43F00203E36430
:10398000042384F83530002384F83430A36C0BB161
:10399000204698472A68616D484B8B401A421AD0DE
:1039A00023681A6812F0020F15D01A6822F002027A
:1039B0001A60626D414B9340AB60E36C43F00403CB
:1039C000E364042384F83530002384F83430A36C96
:1039D0000BB1204698472A68616D10238B401A422C
:1039E0002DD02268116811F0080F28D0116811F449
:1039F000802F11D0AB6023681A6812F4002F03D116
:103A0000312384F8353016E01B6813F4002F12D0F0
:103A1000412384F835300EE0136813F4807F03D11E
:103A2000136823F008031360626D10239340AB60AA
:103A3000312384F83530236C0BB1204698472A682F
:103A4000616D20238B401A4234D02268116811F036
:103A5000100F2FD0116811F4802F13D0AB602368A2
:103A60001A6812F4002F04D1636C1BB320469847E8
:103A700020E01B6813F4002F1CD0E36BD3B1204669
:103A8000984717E0136813F4807F03D1136823F07D
:103A900010031360626D20239340AB60E36CE3641A
:103AA000112384F83530002384F83430E36B0BB1F4
:103AB0002046984738BD00BF010080000400800008
:103AC0002DE9F04782B080460E46B84B984223D08D
:103AD00003F5806398421FD003F5806398421BD0A2
:103AE00003F58063984217D003F58063984213D0A2
:103AF00003F5806398420FD003F5806398420BD0A2
:103B000003F58063984207D003F58063984203D0A1
:103B1000C521A748FFF75EFC338833B37368012BD8
:103B20001ED9112B1CD0022B1AD0122B18D0A14A4F
:103B3000934215D002F58012934211D002F5801203
:103B400093420DD0A2F5F812934209D002F58012EB
:103B5000934205D002F58012934201D0032B09D184
:103B6000B368022B0BD800244AE0C6219048FFF727
:103B700031FCD3E7C7218E48FFF72CFCF0E7C821C2
:103B80008B48FFF727FCEEE7EC218948FFF722FC82
:103B900096E0082300E000238B400343023286496D
:103BA00041F82230854B1A68FB4303EA0201706832
:103BB00010F4803F01D047EA0201804A1160526848
:103BC00003EA0201706810F4003F01D047EA0201E5
:103BD0007A4A5160926803EA0201706810F4801F0B
:103BE00001D047EA0201754A9160D26813407168BA
:103BF00011F4001F01D047EA0203704AD360013478
:103C00000F2C00F2CF800125A54037682F40BD4220
:103C1000F5D17368022B01D0122B31D13369FBB17E
:103C2000092B1DD0012B1BD0022B19D0032B17D031
:103C3000042B15D0052B13D0062B11D0072B0FD03A
:103C4000082B0DD00A2B0BD00B2B09D00C2B07D037
:103C50000D2B05D00F2B03D0D9215548FFF7BAFB08
:103C6000E208083258F8220004F0070399000F23F5
:103C70008B4020EA030033698B40034348F822302D
:103C8000D8F800204FEA440A4FF0030909FA0AF96C
:103C90006FEA090909EA0202736803F0030303FAF1
:103CA0000AF31343C8F8003073685A1E012A03D977
:103CB000112B01D0122B18D1F368032B3FF664AF00
:103CC000D8F8082009EA0202F36803FA0AF313435A
:103CD000C8F80830D8F8042022EA05027368C3F354
:103CE0000015A5401543C8F80450D8F80C3009EA6F
:103CF0000309B36803FA0AF343EA0903C8F80C306E
:103D0000736813F0805F3FF47AAF002301932C4B6C
:103D10005A6C42F480425A645B6C03F48043019312
:103D2000019BA208911C244B53F8210004F00303CB
:103D300099000F238B4020EA03001C4B98453FF469
:103D40002AAF03F5806398451ED003F5806398453C
:103D50001CD003F5806398451AD003F5806398451D
:103D600018D003F58063984516D003F58063984515
:103D700014D003F58063984512D003F5806398450D
:103D80003FF407AF092307E7012305E7022303E711
:103D9000032301E70423FFE60523FDE60623FBE6F4
:103DA0000723F9E602B0BDE8F08700BF000002403B
:103DB000A4BC00080000111000380140003C014084
:103DC0000038024038B505460C4621B12B691C422B
:103DD00007D1002038BD4FF4C8710348FFF7FAFA45
:103DE000F4E70120F6E700BFA4BC000870B5064662
:103DF00015460C4629B1012D09D875B92404B461C2
:103E000070BD40F2B1110648FFF7E4FAF3E74FF452
:103E1000D9710348FFF7DEFAEFE7B461F0E700BFBE
:103E2000A4BC000808B5054B5B69034200D108BD7E
:103E3000024B5861FCF744FEF9E700BF003C01402B
:103E40007047704708B5806BFFF7FBFF08BD7047F0
:103E500008B5806BFDF738FA08BD08B5806B002304
:103E600043854386012380F83D30036C43F02003F3
:103E70000364FDF737FA08BD90F83D007047000075
:103E800008B5836B0268126812F4807F11D11A6A38
:103E9000012A12D019684A6822F002024A60002200
:103EA0005A8593F83D20D2B2322A23D0012283F8DA
:103EB0003D201846FFF7CBFF08BD1A68D16901F411
:103EC0004071B1F5007F03D0D16911F4407F04D176
:103ED000516821F002015160E1E70A498A4206D0A7
:103EE0004FF040214A6822F002024A60D7E7A1F56C
:103EF0008061F7E75A8E92B2002ADAD1012283F864
:103F00003D20D6E70038004008B5836B0268126890
:103F100012F4807F11D11A6A012A12D019684A68F6
:103F200022F001024A6000225A8693F83D20D2B264
:103F3000322A22D0012283F83D201846FDF7B8F935
:103F400008BD1968CA6902F44072B2F5007F03D057
:103F5000CA6912F4407F0BD10C4A914206D04FF04F
:103F600040214A6822F001024A60DCE70849F8E78C
:103F70004A6822F001024A60D5E75A8D92B2002ABF
:103F8000DBD1012283F83D20D7E700BF0038004095
:103F900000340040002900F0D68070B582B00D4694
:103FA000002A00F0D280002B00F0D18090F83D1064
:103FB000C9B2012940F0CE804562C2620168C96978
:103FC00001F00701032906D0052904D003854385A4
:103FD0000386438605E05B009BB203854385038629
:103FE000438690F83C30DBB2012B00F0B5801646DA
:103FF0000446012380F83C30322380F83D30002312
:104000000364836B554A1A64836B554ADA63826B87
:10401000544B9364426B54491164426B5349D163CE
:10402000426B93640268D36903F44073B3F5007F75
:1040300001D0002B3ED1A06B4D4B9A4233D04FF0B4
:104040004021238E32460C31FFF7FEFB2268484B9D
:104050009A422AD04FF04022536843F00103536044
:104060002268238D0C322946606BFFF7EDFB226836
:10407000536843F0020353602368DA6912F4806FD7
:104080000DD13B4A934212D04FF04022D36943F402
:104090008063D3612268D36943F48063D3610020D5
:1040A00084F83C0054E03349CBE7324AD4E7A2F528
:1040B0008062EBE7406B2E4B9A4230D04FF04022AB
:1040C000238D0C322946FFF7BFFB2268284B9A420A
:1040D00027D04FF04022536843F002035360216819
:1040E000238E32460C31A06BFFF7AEFB226853687B
:1040F00043F0010353602368DA6912F4806F14D12E
:10410000DA6942F48062DA612268194B9A420AD075
:104110004FF04022D36943F48063D361BFE7154A6F
:10412000CEE7144AD7E7134AF4E7DA6902F440729B
:10413000B2F5407FB3D100220192DA6801929B6808
:104140000193019BABE701207047012000E00120B3
:1041500002B070BD0220FBE70220F9E7513E0008E3
:10416000093F00085B3E0008453E0008813E00080C
:10417000003800400034004090F83C30DBB2012BA6
:104180004AD0012380F83C3090F83D30DBB2122B4E
:104190001ED090F83D30DBB2222B23D090F83D307A
:1041A000DBB2322B19D1436813B3B3F5007F1FD0B4
:1041B0000268536823F0010353600268174B9A4268
:1041C00028D04FF04022536823F00203536004E0EC
:1041D0000268536823F002035360002380F83C30E8
:1041E000184670470268536823F001035360F4E7F0
:1041F0000268536823F0020353600268074B9A4237
:1042000006D04FF04022536823F001035360E4E7E7
:10421000034AF8E7024AD6E7022070470038004018
:104220000034004090F83C30DBB2012B53D0012326
:1042300080F83C3090F83D30DBB2122B1ED090F865
:104240003D30DBB2222B2CD090F83D30DBB2322B4C
:1042500019D143685BB3B3F5007F28D00268536877
:1042600043F00103536002681C4B9A4231D04FF077
:104270004022536843F00203536004E0026853682D
:1042800043F0020353600368DA6912F4806F03D1CC
:10429000DA6942F48062DA61002380F83C30184623
:1042A00070470268536843F001035360EBE702680C
:1042B000536843F0020353600268084B9A4206D0E9
:1042C0004FF04022536843F001035360DBE7044A98
:1042D000F8E7034ACDE70220704700BF00380040EE
:1042E0000034004090F83C30DBB2012B4ED010B5CA
:1042F000012380F83C300268536823F002035360C6
:104300000268536823F001035360036A012B17D03E
:104310000446406B08B1FFF7D1FAA06B08B1FFF774
:10432000CDFA2268D36923F48063D361236A012B19
:104330001FD0012384F83D30002084F83C0010BDDC
:104340000268134B9A4210D04FF04022536823F07A
:104350000203536002680E4B9A4208D04FF040228D
:10436000536823F001035360D2E70A4AEEE7094A93
:10437000F6E72268064B9A4206D04FF04022D369F6
:1043800023F48063D361D4E7024AF8E70220704740
:104390000038004000340040C369012B19D0134B92
:1043A0005B6813F4800F19D0104B5B6803F03F0378
:1043B0000F48B0FBF3F00D4AD2F88430C3F38813F2
:1043C00000FB03F0D2F88430C3F30273B0FBF3F0C8
:1043D0007047084B01221A6007487047034B5B681F
:1043E00003F03F030548B0FBF3F0E4E70038024078
:1043F00000127A005C0147420080BB000024F400F8
:10440000002800F0058170B50446436843B1B3F558
:10441000807F05D0B3F5007F02D0B3F5407F7AD11D
:10442000A3683BB1102B05D0202B03D0302B01D03B
:10443000B02B75D1E368012B03D9032B01D0052BD9
:1044400073D12369B3F5007F01D0002B72D163696A
:10445000A3F5FA516F4A914201D9022B6FD1A3699A
:104460000BB1082B70D1E369012B72D894F83D3061
:10447000002B73D0022284F83D202168CB6923F4FD
:104480007B6323F00F03CB6123681A622368DE6924
:104490006369934273D0E368002B65D10125204600
:1044A000FFF77AFF2369B3F5007F5FD06D01B0FBA2
:1044B000F5F000EB800045006369B5FBF3F50535C9
:1044C000554BA3FB0535ED0805F00102AB1A5B085F
:1044D00011029A1EFD2A01D90021022322690A43F2
:1044E000216813430B626368A2681343E2681343B5
:1044F000A2691343334343F400632268D361236A00
:10450000012B3FD8236A012B42D0002020640123D5
:1045100084F83D3070BDC4214048FEF75BFF7FE763
:10452000C5213E48FEF756FF84E7C6213B48FEF70B
:1045300051FF86E7C7213948FEF74CFF87E7C821BE
:104540003648FEF747FF8AE7C9213448FEF742FFA5
:1045500089E7CA213148FEF73DFF87E784F83C3000
:104560002046FFF76DFC85E7022598E7000A00EB7F
:10457000800045006369B5FBF3F50535A0E700252C
:104580002946A6E74FF493712448FEF723FFB9E7C5
:104590002268234B9A4223D04FF04022D36923F460
:1045A0007B6323F00F03D36122681D4B9A4219D01D
:1045B0004FF04022022313622268194B9A4213D013
:1045C0004FF04021C8696268B2F5007F0ED0D2B1C9
:1045D000B2F5407F1AD0B2F5807F09D1002507E0FF
:1045E000104ADBE70F4AE5E70E49EBE74FF4807529
:1045F000A3682B43E5682B43A5692B43034343F48E
:104600000063CB6181E74FF48075F1E70025EFE7A8
:1046100001207047C0CE0200CDCCCCCCD4BC000869
:10462000003800400034004030B583B004460368D1
:104630000F2B29D8236813F0010F3DD06368012B9D
:1046400001D9052B25D1A44B9B6803F00C03042B47
:1046500029D0A14B9B6803F00C03082B1ED02279B4
:104660009E4B1A706368002B50D0FEF7DDFE0546A6
:10467000994B1B6813F4003F1ED1FEF7D5FE401B7B
:104680006428F5D90320E8E1F6219548FEF7A2FE5B
:10469000D0E7FB219248FEF79DFED4E78E4B5B6886
:1046A00013F4800FDBD08C4B1B6813F4003F03D056
:1046B0006368002B00F0CE81236813F0020F5ED0F8
:1046C000E368012B31D823691F2B34D8824B9B68B8
:1046D00013F00C0F3AD0804B9B6803F00C03082BAF
:1046E0002FD0E368002B76D07E4B01221A60FEF7B4
:1046F0009BFE0546784B1B6813F0020F5BD1FEF75B
:1047000093FE401B0228F5D90320A6E1FEF78CFE9C
:104710000546714B1B6813F4003FCDD0FEF784FEB5
:10472000401B6428F5D9032097E140F22D116C4815
:10473000FEF750FEC7E74FF497716948FEF74AFE4F
:10474000C4E7654B5B6813F4800FCAD1624B1B68EA
:1047500013F0020F04D0E368012B01D001207CE1AB
:104760005D48026822F0F8022169F82393FAA3F366
:10477000B3FA83F3DBB201FA03F313430360236854
:1047800013F0080F51D06369012B36D86369002BF1
:1047900039D0554B01221A60FEF746FE05464E4BB6
:1047A0005B6F13F0020F40D1FEF73EFE401B022864
:1047B000F5D9032051E14848026822F0F802216946
:1047C000F82393FAA3F3B3FA83F3DBB201FA03F30A
:1047D00013430360D3E7434B00221A60FEF724FE25
:1047E00005463D4B1B6813F0020FC8D0FEF71CFEB8
:1047F000401B0228F5D903202FE14FF4B771384848
:10480000FEF7E8FDC2E7384B00221A60FEF70CFE07
:104810000546314B5B6F13F0020F06D0FEF704FE26
:10482000401B0228F5D9032017E1236813F0040F79
:1048300060D0A368012B01D9052B1FD10023019360
:10484000254B1A6C42F080521A641B6C03F08053A3
:104850000193019B254A136843F480731360FEF7AC
:10486000E3FD0546214B1B6813F4807F0CD1FEF756
:10487000DBFD401B0228F5D90320EEE04FF4CC719C
:104880001748FEF7A7FDD9E7227A194B1A70A368DB
:1048900083B1FEF7C9FD05460F4B1B6F13F0020FE6
:1048A00028D1FEF7C1FD401B41F288339842F3D96D
:1048B0000320D2E0FEF7B8FD0546074B1B6F13F04F
:1048C000020F17D0FEF7B0FD401B41F2883398422B
:1048D000F3D90320C1E000BF003802400238024093
:1048E00018BD000800004742800E4742007000409B
:1048F00070380240A369022B39D8A369002B00F05D
:10490000AB80584A926802F00C02082A00F0A78097
:10491000022B40F08B80E36913B1B3F5800F2CD1EB
:10492000236A3F2B2FD8636A323BB3F5BF7F30D861
:10493000A36A022B05D0042B03D0062B01D0082B31
:104940002DD1E36A043B0B2B2FD8474B00221A6072
:10495000FEF76AFD0546434B1B6813F0007F2AD023
:10496000FEF762FD401B0228F5D9032075E040F2F6
:10497000CD113E48FEF72EFDBFE74FF4EB713B48EB
:10498000FEF728FDCCE740F2D7113848FEF722FDAC
:10499000C9E74FF4EC713548FEF71CFDC8E740F25B
:1049A000D9113248FEF716FDCBE74FF4ED712F48D1
:1049B000FEF710FDC9E7E369226A1343616A47F60F
:1049C000C07292FAA2F2B2FA82F2D2B201FA02F202
:1049D0001343A26A5208013A4FF4403191FAA1F10F
:1049E000B1FA81F1C9B28A401343E16A4FF07062B3
:1049F00092FAA2F2B2FA82F2D2B201FA02F21343AE
:104A0000184A5360184B01221A60FEF70DFD044648
:104A1000144B1B6813F0007F06D1FEF705FD001B49
:104A20000228F5D9032018E0002016E00E4B0022E2
:104A30001A60FEF7F9FC04460A4B1B6813F0007F6E
:104A400006D0FEF7F1FC001B0228F5D9032004E094
:104A5000002002E0012000E0002003B030BD012072
:104A6000FBE700BF003802406000474218BD000865
:104A700070B504460D460368013B0E2B11D8072D77
:104A800015D8814B1B6803F00F03AB4215D2EBB274
:104A90007D4A1370136803F00F03AB420DD0012061
:104AA00070BD4FF40E717948FEF794FCE7E740F2D1
:104AB00039217648FEF78EFCE3E7236813F0020FF6
:104AC00018D0A3687BB1802B0DD0902B0BD0A02BDE
:104AD00009D0B02B07D0C02B05D0D02B03D0E02BB2
:104AE00001D0F02B37D16A4A936823F0F003A16814
:104AF0000B439360236813F0010F6FD06368032B9F
:104B00002FD86368012B32D09A1E012A36D9604A09
:104B1000126812F0020F00F0B5805D498A6822F039
:104B2000030213438B60FEF77FFC06466368012B8C
:104B30002BD0022B38D0032B45D0554B9B6813F05C
:104B40000C0F4BD0FEF770FC801B41F2883398426B
:104B5000F3D90320A4E74FF414714C48FEF73AFC54
:104B6000C1E740F257214948FEF734FCC9E7484AFB
:104B7000126812F4003FD0D1012091E7444A126834
:104B800012F0007FC9D101208AE7414B9B6803F0F6
:104B90000C03042B22D0FEF747FC801B41F2883324
:104BA0009842F2D903207BE7394B9B6803F00C0352
:104BB000082B13D0FEF738FC801B41F28833984253
:104BC000F2D903206CE7324B9B68FEF72DFC801B6B
:104BD00041F288339842F6D9032061E72A4B1B68DB
:104BE00003F00F03AB4209D9EAB2274B1A701B68D6
:104BF00003F00F03AB4201D0012051E7236813F00B
:104C0000040F14D0E3685BB1B3F5805F08D0B3F54F
:104C1000A05F05D0B3F5C05F02D0B3F5E05F25D14A
:104C20001B4A936823F4E053E1680B4393602368C5
:104C300013F0080F15D023695BB1B3F5805F08D07E
:104C4000B3F5A05F05D0B3F5C05F02D0B3F5E05F68
:104C500012D10F4A936823F46043216943EAC103E8
:104C600093600F2000F07CFE002019E740F2B52190
:104C70000648FEF7AFFBD3E74FF42F710348FEF76A
:104C8000A9FBE6E701200BE7003C024018BD000845
:104C900000380240224B9B6803F00C03042B3DD0EC
:104CA000082B01D01F4870471D4B586800F03F008B
:104CB0005B6813F4800F20D01B4AB2FBF0F2184B54
:104CC000586847F6C073184093FAA3F3B3FA83F316
:104CD000DBB2D84000FB02F0114B5B6803F44033B9
:104CE0004FF4403292FAA2F2B2FA82F2D2B2D34038
:104CF00001335B00B0FBF3F070470A4AB2FBF0F2FD
:104D0000074B586847F6C073184093FAA3F3B3FAF9
:104D100083F3DBB2D84000FB02F0DDE702487047C6
:104D2000003802400024F40000127A0008B5FFF7B2
:104D3000B1FF094B9A6802F0F002F02393FAA3F353
:104D4000B3FA83F3DBB222FA03F3044AD35CD8400C
:104D5000034B186008BD00BF0038024008BD0008C2
:104D60000801002008B5FFF7E1FF084B9A6802F43C
:104D7000E0524FF4E05393FAA3F3B3FA83F3DBB2B8
:104D800022FA03F3024AD35CD84008BD003802403F
:104D900008BD00080F2303600B4B9A6802F0030262
:104DA00042609A6802F0F00282609A6802F4E0526F
:104DB000C2609B68DB0803F4E0530361034B1B688C
:104DC00003F00F030B60704700380240003C0240C4
:104DD00030B583B004460368013B062B1ED8236818
:104DE00013F0010F55D0A368023B052B1CD8636854
:104DF000323BB3F5BF7F1DD85C4B00221A60FEF733
:104E000013FB05465A4B1B6813F0006F18D0FEF7D2
:104E10000BFB401B0228F5D903203FE040F216614E
:104E20005448FEF7D7FADAE740F21C615148FEF722
:104E3000D1FADCE740F21D614E48FEF7CBFADBE722
:104E4000626847F6C07393FAA3F3B3FA83F3DBB255
:104E50009A40A1684FF0E04393FAA3F3B3FA83F3C7
:104E6000DBB201FA03F31343414AC2F884303F4BEB
:104E700001221A60FEF7D8FA05463D4B1B6813F075
:104E8000006F06D1FEF7D0FA401B0228F5D90320A7
:104E900004E0236813F0020F02D1002003B030BDFC
:104EA00000230193324B1A6C42F080521A641B6C3F
:104EB00003F080530193019B2F4A136843F48073DE
:104EC0001360FEF7B1FA05462B4B1B6813F4807F85
:104ED00006D1FEF7A9FA401B0228F5D90320DDE729
:104EE000234B1B6FE268534013F4407F3CD0204AB1
:104EF000136F23F44070214901250D6000250D60DA
:104F0000106713F0020F13D1E36803F44072B2F597
:104F1000407F1ED0164A936823F4F8139360144917
:104F20000B6FE268C2F30B0213430B670020B5E777
:104F3000FEF77AFA05460E4B1B6F13F0020FE3D112
:104F4000FEF772FA401B41F288339842F3D90320EE
:104F5000A4E707498A6822F4F81223F0704323F487
:104F6000407313438B60DAE7002097E768004742FD
:104F70000038024048BD000800700040400E474223
:104F8000032303601249D1F8842047F6C0731A4006
:104F900093FAA3F3B3FA83F3DBB222FA03F3436089
:104FA000D1F8842002F0E0424FF0E04393FAA3F3FB
:104FB000B3FA83F3DBB222FA03F383608A6802F464
:104FC000F8120B6F03F440731343C360704700BFC4
:104FD00000380240F8B505460F4616461C462B68B9
:104FE0009B683B40B34238D0B4F1FF3FF7D02CB1BF
:104FF000FEF71AFA069BC01AA042F0D32A6853683B
:1050000023F0E00353606B68B3F5827F0BD0AB6A8B
:10501000B3F5005F14D0012385F85130002385F8E3
:10502000503003201AE0AB68B3F5004F02D0B3F55F
:10503000806FECD12A68136823F040031360E6E721
:105040002A68136823F400531B041B0C13602A689E
:10505000136843F400531360DDE70020F8BD10B57A
:1050600082B0044600920B4600228021FFF7B2FF77
:10507000034610B9184602B010BD636D43F020031B
:1050800063650323F6E77047002800F0C08010B581
:10509000044603685F4A93420CD0A2F578429342DB
:1050A00008D002F58062934204D04FF486715A48CA
:1050B000FEF790F9636813B1B3F5827F6BD1A368F3
:1050C0002BB1B3F5806F02D0B3F5004F69D1E3681F
:1050D000B3F5006F01D0002B69D1A369B3F5007F50
:1050E00003D013B1B3F5802F67D1E3696BB1082BFF
:1050F0000BD0102B09D0182B07D0202B05D0282B34
:1051000003D0302B01D0382B5DD1236A0BB1802B1B
:105110005FD1636A0BB1102B61D1636A33B9236924
:105120000BB1022B61D16369012B64D80023A36208
:1051300094F85130002B64D0022384F85130226857
:10514000136823F0400313606368A2681343E268A6
:1051500013432269134362691343A26902F4007284
:105160001343E2691343226A1343A16A22680B4383
:105170001360638B03F00403616A22680B4353607E
:105180002268D36923F40063D361002060650123A2
:1051900084F8513010BD40F20D111F48FEF71AF986
:1051A0008DE74FF487711C48FEF714F98FE740F242
:1051B0000F111948FEF70EF98FE74FF48871164862
:1051C000FEF708F991E740F211111348FEF702F9D2
:1051D0009BE74FF489711048FEF7FCF899E740F21D
:1051E00013110D48FEF7F6F897E74FF48B710A4854
:1051F000FEF7F0F897E740F217110748FEF7EAF8D4
:1052000094E784F850302046FFF73DFF94E70120F3
:10521000704700BF003001407CBD000870470000AF
:1052200020B310B504460368114A93420CD0A2F58E
:105230007842934208D002F58062934204D04FF442
:10524000AF710C48FEF7C6F8022384F8513022688B
:10525000136823F0400313602046FFF7DFFF0020B0
:10526000606584F8510084F8500010BD012070473B
:10527000003001407CBD00082DE9F04182B00446B9
:105280000D4617461E46836813B1B3F5004F19D17A
:1052900094F85030012B00F09B80012384F85030AB
:1052A000FEF7C2F8804694F85130DBB2012B0FD0E4
:1052B0000220012384F85130002384F8503002B0DA
:1052C000BDE8F0814FF4E2714248FEF783F8DFE772
:1052D000002D73D0002F73D0032384F851300023A6
:1052E00063652563A786E786A363A387E387636473
:1052F0002364A368B3F5004F0DD023681A6812F039
:10530000400F03D11A6842F040021A60E368B3F517
:10531000006F26D10AE02268136843F480431360CB
:10532000EBE7002E4ED0B6F1FF3F0DD1E38E73B305
:1053300023689A6812F0020FF3D035F8022BDA6076
:10534000E38E013BE386F1E7FEF76EF8A0EB080081
:10535000B042EBD30320ACE7002E35D0B6F1FF3FCF
:105360000DD1E38E9BB123689A6812F0020FF3D03F
:1053700015F8012B1A73E38E013BE386F1E7FEF784
:1053800053F8A0EB0800B042EBD3032091E742466C
:1053900031462046FFF763FE18B1636D43F02003EA
:1053A0006365A36833B901932368DA6801929B6847
:1053B0000193019B636D4BB900207AE7012078E7E8
:1053C000012076E7032074E7032072E7012070E7ED
:1053D000022074E77CBD00082DE9F84304460E4620
:1053E00017469846089D8368EBB994F85030012B16
:1053F00000F0C580012384F85030FEF715F881468F
:1054000094F85130DBB2012B1ED06368B3F5827F74
:105410000FD00223012284F85120002284F850206A
:105420001846BDE8F8834FF44A715648FDF7D2FF9D
:10543000DBE7A368002B40F09A8094F85130DBB290
:10544000042B01D00223E5E7002E00F09280002F0C
:1054500000F09180B8F1000F00F08F8094F8513087
:10546000DBB2012B1BD000236365A763A4F83E8049
:10547000A4F83C802663A4F83680A4F83480236422
:10548000636423681A6812F0400F03D11A6842F06F
:1054900040021A60E368B3F5006F32D106E00523DD
:1054A00084F85130DFE7B5F1FF3F1FD1E38E13B928
:1054B000E28F002A4CD053B123689A6812F0020F91
:1054C00005D036F8022BDA60E38E013BE386E38FEA
:1054D000002BE8D023689A6812F0010FE3D0DB6854
:1054E00027F8023BE38F013BE387DCE7FDF79CFFF6
:1054F000A0EB0900A842D9D303238BE7B5F1FF3F06
:105500001ED1E38E0BB9E28F12B353B123689A68B0
:1055100012F0020F05D032781A73E38E013BE38656
:105520000136E38F002BE9D023689A6812F0010F4F
:10553000E4D0DB683B70E38F013BE3870137DDE7B5
:10554000FDF772FFA0EB0900A842DAD3032361E75D
:105550004A4629462046FFF782FD034600283FF4CD
:1055600059AF636D43F020036365012352E70223C3
:1055700050E701234EE701234CE701234AE70223CA
:105580004EE700BF7CBD000890F85100704770479F
:1055900010B504460368234A934237D0B3F1804FD5
:1055A00034D0A2F57C42934230D002F5806293421F
:1055B0002CD002F58062934228D002F5806293429B
:1055C00024D002F58062934220D002F570429342CB
:1055D0001CD002F57052934218D002F580629342BB
:1055E00014D002F58062934210D0A2F59832934213
:1055F0000CD002F58062934208D002F5806293429B
:1056000004D04FF4B2710848FDF7E4FE2268D36875
:1056100043F00103D3602268136843F00103136071
:10562000002010BD00000140ACBD0008704770476D
:105630007047704710B5044603681A6912F0020FEC
:1056400011D0DA6812F0020F0DD06FF002021A6169
:105650000123037603689B6913F0030F70D0FFF7F3
:10566000E6FF0023237623681A6912F0040F12D094
:10567000DA6812F0040F0ED06FF004021A610223F0
:10568000237623689B6913F4407F5FD02046FFF7A1
:10569000CEFF0023237623681A6912F0080F12D078
:1056A000DA6812F0080F0ED06FF008021A610423B6
:1056B00023762368DB6913F0030F4ED02046FFF7F3
:1056C000B6FF0023237623681A6912F0100F12D058
:1056D000DA6812F0100F0ED06FF010021A61082372
:1056E00023762368DB6913F4407F3DD02046FFF723
:1056F0009EFF0023237623681A6912F0010F03D05E
:10570000DA6812F0010F36D123681A6912F0800F9F
:1057100003D0DA6812F0800F34D123681A6912F0CE
:10572000400F03D0DA6812F0400F32D123681A69B3
:1057300012F0200F03D0DA6812F0200F30D110BD24
:10574000FFF774FF2046FFF773FF8AE72046FFF755
:105750006DFF2046FFF76CFF9BE72046FFF766FFD3
:105760002046FFF765FFACE72046FFF75FFF2046C6
:10577000FFF75EFFBDE76FF001021A61204600F0FF
:105780003DF9C1E76FF080021A61204600F0E7F8AA
:10579000C3E76FF040021A612046FFF74AFFC5E7F2
:1057A0006FF020021A61204600F0D8F8C7E7000029
:1057B00003682E4A904212D0B0F1804F0FD0A2F56C
:1057C0007C4290420BD002F58062904207D002F5F5
:1057D0008062904203D002F57842904203D123F0D8
:1057E00070034A681343214A90422AD0B0F1804F97
:1057F00027D0A2F57C42904223D002F580629042ED
:105800001FD002F5806290421BD002F57842904290
:1058100017D002F57052904213D002F58062904288
:105820000FD002F5806290420BD0A2F598329042E0
:1058300007D002F58062904203D002F58062904268
:1058400003D123F44073CA68134303608B68C362B7
:105850000B688362054B984203D003F5806398423E
:1058600001D10B69036301234361704700000140CC
:1058700000286DD010B504460368364A934236D0EE
:10588000B3F1804F33D0A2F57C4293422FD002F582
:10589000806293422BD002F58062934227D002F5BA
:1058A0008062934223D002F5806293421FD002F5BA
:1058B000704293421BD002F57052934217D002F50A
:1058C0008062934213D002F5806293420FD0A2F51A
:1058D000983293420BD002F58062934207D002F5D2
:1058E0008062934203D0D9211B48FDF773FDA36862
:1058F0003BB1102B05D0202B03D0402B01D0602BC7
:1059000016D123692BB1B3F5807F02D0B3F5007FA8
:1059100013D194F83930ABB1022384F83930211D0A
:105920002068FFF745FF012384F83930002010BDBF
:10593000DA210948FDF74EFDE3E7DB210648FDF7D4
:1059400049FDE6E784F838302046FFF720FEE3E71C
:105950000120704700000140ACBD0008704770474F
:1059600000B589B0002201463620FDF78FFD3620B4
:10597000FDF7D0FD00230193174B1A6C42F0100283
:105980001A641B6C03F010030193019B02A903A886
:10599000FFF700FA069BBBB9FFF7E4F90F4BA3FB37
:1059A00000239B0C013B0E480E4A026040F2E73296
:1059B000C2604360002303618360FFF759FF38B181
:1059C000012009B05DF804FBFFF7CCF94000E5E7E2
:1059D0000348FFF7DDFDF4E70038024083DE1B4398
:1059E0009C55002000100040034B1A68D36823F038
:1059F0000103D360704700BF9C55002008B5FDF738
:105A00000BFD08BD08B50248FFF714FE08BD00BF36
:105A10009C55002000B589B000210191114B5A6CB2
:105A200042F480525A645A6C02F480520192019AF4
:105A300002911A6B42F001021A631B6B03F001031F
:105A40000293029BE0230393022304930593012313
:105A500006930523079303A90348FEF731F809B01D
:105A60005DF804FB003802400000024010B5104809
:105A7000FFF78AFD00B110BD0D4C0E4B23601823BB
:105A8000E3610023A36063612361A3620722E262F2
:105A9000E36023624FF40072A26163624FF4827389
:105AA0006360FFF7B7FF2046FFF7EEFAE3E700BFBA
:105AB000241000200030014008B50348FFF7B0FB78
:105AC000FFF7D4FF08BD00BF2410002000B587B049
